:020000040000FA
:10000000008000100D020000150200001702000021
:10001000190200001B0200001D0200000000000089
:100020000000000000000000000000001F020000AF
:100030002102000000000000230200002502000051
:10004000270200002702000027020000270200000C
:1000500027020000270200002702000027020000FC
:1000600027020000270200002702000027020000EC
:1000700027020000270200002702000027020000DC
:1000800027020000270200002702000027020000CC
:1000900027020000270200002702000027020000BC
:1000A00027020000270200002702000027020000AC
:1000B000270200002702000027020000270200009C
:1000C0002702000000F002F800F096F80AA090E87D
:1000D000000C82448344AAF10107DA4501D100F003
:1000E0008BF8AFF2090EBAE80F0013F0010F18BF3A
:1000F000FB1A43F001031847A86A0000C86A000011
:10010000103A24BF78C878C1FAD8520724BF30C843
:1001100030C144BF04680C60704700000023002415
:1001200000250026103A28BF78C1FBD8520728BF07
:1001300030C148BF0B6070476E2900F031867029CE
:1001400000F08587662906F04A81652906F0478117
:10015000672906F04481612906F0438103681B0A80
:1001600028BF41F08001692900F08880642900F0EF
:100170008580752900F082806F2900F01287782928
:1001800000F05187E92900F0AD86E42900F0AA8645
:10019000F52900F0A786EF2900F00F87F82900F075
:1001A00050870368DB0928BF41F08001632902F012
:1001B0004583732902F04A83E32902F05583F3292A
:1001C00002F05A83002070471FB59DE8030001F03C
:1001D0001BFF01F0FDFE04000020002105F0F8FAED
:1001E000401C60600020002105F008FBE06001F089
:1001F000E5FD00F09BFC1FBD04F088FB1146FFF7F6
:10020000E3FF04F093FE04F0EEFD00000648804793
:1002100006480047FEE7FEE7FEE7FEE7FEE7FEE7EB
:10022000FEE7FEE7FEE7FEE7713D0000C5000000C7
:100230000FB4014610B504AA039800F0E3FD10BC0A
:100240005DF814FB0B460146184600F0DBBD0000CC
:100250000FB41CB5084B06AA7B446946009005986C
:1002600000F0B7FD04460020694600F0C5FD2046B9
:100270001CBC5DF814FB00009D0B00002DE9F04153
:100280000646002410687529314616A510D000F0E6
:10029000F3FC002802DA404213A507E031688A0720
:1002A00001D512A502E0490704D511A5012401E0FA
:1002B00000F0EBFC00210A2206F1240709E0B0FB64
:1002C000F2FCB0FBF2F302FB1C003030785418460D
:1002D000491C0028F3D123462A463046BDE8F041A8
:1002E00000F005BD000000002D0000002B00000004
:1002F0002000000000487047FC020010FFFFFFFFD5
:100300002DE9F05F894604464FF0000ADFF874B12A
:10031000FB44C0F820A02046E1688847002874D03C
:10032000252806D0D4E901219047206A401C20628C
:10033000F1E700265F462046E16888472028054609
:1003400007DB312D05D2781910F8200C08B10643CF
:10035000F1E7B00701D526F00406C4F81CA0002779
:10036000C4F818A02A2D09D0284604F0D5FA38B3CD
:1003700004EB8708303DC8F8185019E059F8041B01
:10038000204604EB87029161E1688847012F05460A
:1003900018D1E069002820DA26F020061DE0D8F800
:1003A000180000EB800005EB40003038C8F818005A
:1003B0002046E1688847054604F0AEFA0028EED1F1
:1003C000012F0AD02E2D08D12046E16888477F1CD6
:1003D0000546022F46F02006C4DBA069002803DA98
:1003E000404246F00106A061F00701D026F0100659
:1003F0006C2D0BD0682D09D04C2D39D06A2D35D0FD
:10040000742D35D07A2D33D016E038E0E1682F46D0
:1004100020468847B842054609D16C2F26D04FF4B4
:100420008060E168064320468847054604E06C2F5B
:100430001AD04FF4807006430DB3A5F1410019287E
:1004400002D8203546F400664A46294620462660F2
:100450004E46FFF771FE80B101280BD0F61D26F045
:10046000070000F1080956E74020E4E78020D8E7BC
:100470000020D6E706F104094DE7284652E7206A36
:10048000BDE8F09F6B6400000FB400B58DB010A9FB
:10049000099000910B904FF0FF300A9000200C90D3
:1004A000064878440690064878446A4607900F99B3
:1004B00009A801F0E9F80DB05DF814FB0312000083
:1004C0001B1200002DE9FF5F1D464FF0FF3B9146D8
:1004D0004FF000085F46D5E90146A96901987F1CE5
:1004E0008847296A824688470028F6D1BAF1FF3F3B
:1004F0000CD0002E24F4C06419DD600614D5BAF1C6
:100500002B0F09D0BAF12D0F0ED103E0584604B0DD
:10051000BDE8F09F44F48064A96901987F1C884776
:10052000761E8246002E02DDBAF1300F03D0B9F1FB
:10053000000F26D032E0A969761E01987F1C44F492
:1005400000748847002E824605DDBAF1780F06D088
:10055000BAF1580F03D0B9F1000F10D01EE0B9F175
:10056000000F02D0B9F1100F18D1A969761E0198B9
:100570007F1C24F4007488478246102002E0082083
:1005800000E00A20814609E0A96908FB0908761EF7
:1005900001987F1C44F4007488478246002E05DDD4
:1005A0004946504600F05EFD0028EDDAE969019801
:1005B0008847A00502D46FF00100A8E7E00725D125
:1005C000600613D5600502D5C8F1000000E0404682
:1005D00029680A1D2A600968220501D5087015E0FE
:1005E000220701D5088011E008600FE02868011D8E
:1005F00029600068210502D580F8008006E0210707
:1006000002D5A0F8008001E0C0F8008038467EE7FF
:100610002DE9FF5F4FF00008994614464646916960
:10062000D2E901A7DDF838B001988847054659EAB4
:100630000B0005D009E0A1690198761C88470546A2
:10064000216A284688470028F5D1681C03D05FEA54
:10065000CA7005D015E04FF0FF3004B0BDE8F09F40
:100660002068011D2160D0F800800AE05FEACA70AE
:1006700001D108F8015BA169761C01987F1E8847AB
:100680000546002F1ADD681C18D0B9F1000F0DD0F7
:10069000E81705EBD060421120F01F0059F8221036
:1006A0002A1A012090400142E0D107E0BBF1000F7F
:1006B000DCD12846216A88470028D7D0E169019813
:1006C0008847BBF1000F07D1002E05DD5FEACA7035
:1006D00002D1002188F80010A068B84203DDBBF108
:1006E000000F03D017B16FF00100B6E73046B4E752
:1006F00070B50446C068810713D0800601D5A56A8D
:1007000004E0A169606808442169451A204601F0A7
:1007100011FB002206462946204601F037FA3046F2
:1007200070BD002070BD70B510B1BDE87040DFE74E
:100730000025074C6E1E07E02046FFF7D9FF00B1E9
:100740003546206D20F00104002CF5D1284670BDFF
:100750000002001070B50D46044604E0294604F07E
:100760004DFB401C04D014F8010B0028F6D170BDDD
:100770004FF0FF3070BD00002DE9F0410C460746F8
:100780001646104600F078F82078611C61280AD0DF
:10079000722802D077283CD102E00125002405E030
:1007A0000225042402E0082448F2020511F8010B96
:1007B0002B2806D0622809D011F8010C74280AD021
:1007C0000BE045F0030544F00204EFE745F00405B3
:1007D00044F00104EAE744F010043846214604F0EE
:1007E000E1F8411C15D00021316171604FF40071B6
:1007F000F560F1617061200704D5304602220021C6
:1008000001F0C4F9306D40F0010030653046BDE8BC
:10081000F0810020FBE72DE9F0410D460646104C23
:10082000206DC10704D0410804D020F00104F7E78F
:1008300022460EE0542000F097F907000ED0206DFC
:1008400047F00101084354212065384601F085FB3B
:100850003A4629463046BDE8F0418DE70020D6E70C
:100860000002001011B14FF4807201E04FF4806279
:100870004FF4007301F006BA2DE9F04704464FF03B
:1008800000094FF0FF37C568D4E90486A80707D0F0
:10089000204601F04FFA304604F046F8002802DA0C
:1008A0003846BDE8F087280502D5404600F08BF9B0
:1008B0004C21204601F051FB206D20F00100206505
:1008C0004846EEE72DE9F041074615460E46102052
:1008D00000F04AF904000AD06760C4E90265FFF736
:1008E00009FD0168216004600020BDE8F08101205D
:1008F000FBE700000EB5054614460E4613A002F0B5
:1009000085FA284602F082FA16A002F07FFA3046F5
:1009100002F07CFA15A002F079FA00218DF80B1094
:100920000A210DF10A008DF80A1008E094FBF1F29B
:1009300001FB124294FBF1F4303200F8012D002C3F
:10094000F4DC02F063FA01F0D5FA00002A2A2A202A
:10095000617373657274696F6E206661696C65643A
:100960003A2000002C2066696C6520002C206C6900
:100970006E65200010B5431C02E010F8011B71B138
:100980008107FAD14FF0013202C88C1A8C4314EA65
:10099000C211F9D0C01A0A0603D0C01E10BDC01A79
:1009A00010BD0A0401D0801E10BD0902FCD0401EFB
:1009B00010BD40EA010370B59B072ED14FF0013600
:1009C000042A2AD308C810C99D1B9D43121F15EA8B
:1009D000C61517D0D8B2E1B2401A50EA056110D15D
:1009E00098B2A1B2401A50EA05410AD123F07F40E3
:1009F00024F07F41401A50EA052102D1180EA0EBE5
:100A0000146070BDA342DBD018BA21BA884201D964
:100A1000012070BD4FF0FF3070BD0AB9002070BDDD
:100A200010F8013B11F8014B63B1A3420AD1521EE9
:100A300008D010F8013B11F8014B1BB1A34201D1C2
:100A4000521EEDD1181B70BD10B5203AC0F00B80BE
:100A5000B1E81850203AA0E81850B1E81850A0E8C2
:100A60001850BFF4F5AF5FEA027C24BFB1E818501C
:100A7000A0E8185044BF18C918C0BDE810405FEA8C
:100A8000827C24BF51F8043B40F8043B08BF704708
:100A9000D20728BF31F8023B48BF11F8012B28BF0D
:100AA00020F8023B48BF00F8012B70474FF0013C93
:100AB00050F8042B51F8043B9A4221D1A2EB0C03CD
:100AC000934313EACC1317D150F8042B51F8043B8D
:100AD0009A4215D1A2EB0C03934313EACC130BD12A
:100AE00050F8042B51F8043B9A4209D1A2EB0C03B5
:100AF000934313EACC13DBD04FF00000704700BFE4
:100B0000D01A01BAB1FA81F101F0180122FA01F00C
:100B1000CB40C1F12001DBB2C0B2C01A2CFA01F304
:100B2000D11A914311EAC311E6D1704770B5064C52
:100B30007C44064D7D4403E0206820448047241D0A
:100B4000AC42F9D170BD0000C0610000C06100007E
:100B500010B501F03DFA001D10BD00BF754C00003E
:100B6000004870470003001070B5064601F02CFAEB
:100B7000056806F10B0020F00704B4429CBF00207A
:100B800070BD2B466A68BAB11068A04210D304F158
:100B9000080188423CBF5068586007D3516810195B
:100BA00041601168091B016058601460101D70BD20
:100BB00013465268002AE7D12146284601F010FA70
:100BC0000028DED170BD70B50446051F01F0FCF9A8
:100BD0000068002C14BF446870BD002C18BFAC42E4
:100BE0003CBF20466468F8D301680A18AA4218BFBF
:100BF000456003D12A6805461144016028684119FF
:100C0000A1421CBF6C6070BD6168696021680844C6
:100C1000286070BD10B5FFF7A3FF006810BD10B5C8
:100C20000446FFF79DFF046010BD70B5044685695A
:100C30000068C10601D5302600E02026C00707D095
:100C400070BDD4E9012130469047206A401C2062E3
:100C50006D1EF6D570BD70B5044685690078C00775
:100C600007D170BDD4E9012120209047206A401CA3
:100C700020626D1EF6D570BD09684A0501D540B2E7
:100C80007047C905FCD500B2704709684A0501D50F
:100C9000C0B27047C905FCD580B2704770B50C462C
:100CA0000546012A05D02878800600D5EA69002388
:100CB00002E0012305E05B1C934202D2E05C0028C5
:100CC000F9D1A869E618C01AA861286A18442862F0
:100CD0002846FFF7AAFF04E0D5E9012114F8010B2B
:100CE0009047B442F8D32846FFF7B5FF70BD2DE911
:100CF000F0470D4699469246044600F124080168E3
:100D0000880604D5E06921F01001216000E001208F
:100D1000A84201DD471B00E00027A1697A1902EB18
:100D20000900081AA0612078C00602D42046FFF707
:100D30007CFF002608E0D4E901211AF8060090475C
:100D4000206A401C761C20624E45F4DB2078C006E9
:100D50000AD52046FFF769FF06E0D4E901213020DB
:100D60009047206A401C2062381EA7F10107F4DC7E
:100D700007E0D4E9012118F805009047206A401CDB
:100D80002062281EA5F10105F3DC2046FFF763FF72
:100D90002078000602D50220BDE8F0870120FBE79D
:100DA00011680268006A530501D508700AE0D3058E
:100DB00001D5088006E0130603D5C217C1E9000279
:100DC00000E008600120704701694A1C0261087850
:100DD000704700B58FB0CDE901310021059105497B
:100DE0007944CDE9031011466846FFF789FA0FB040
:100DF00000BD0000E5FFFFFF0A6802F8010B0A6072
:100E000070470000074B70B50D467B44FFF7E1FFCC
:100E10000446284601F06CFF10B14FF0FF3070BD62
:100E2000204670BDEF3F00002DE9FF5F15468A4662
:100E30000446DFF8AC80F8440027D8E900103E46AD
:100E4000CDE9001010E03AF816106A4602A801F049
:100E500092FF411C07D02178890603D5E269391831
:100E600091420DD80744761C2078800602D5E069AF
:100E7000B84205DDAE42E6DB3AF816000028E2D1C2
:100E8000A069C01BA0612046FFF7CFFED8E9001083
:100E9000CDE90010002017E03AF818106A4602A8C1
:100EA00001F069FFB0F1FF3F81460BD000250DF145
:100EB000080B05E0D4E901211BF8050090476D1CE3
:100EC0004D45F7D308F10100B0428046E4DB206ACB
:100ED000384420622046FFF7BEFEBDE8FF9F0000B9
:100EE000565900002DE9F0418046D21D22F007023C
:100EF0000025D2E90002F52915A614D0011E72F1D1
:100F0000000106DA0023D0EB030063EB020211A616
:100F100008E0D8F800108B0701D50FA602E04907BA
:100F200001D50EA601251146002408F1240704E08E
:100F300001F0A0F830323A55641C50EA0102F7D1B2
:100F40002B46324621464046BDE8F041FFF7CFBE72
:100F5000000000002D0000002B0000002000000019
:100F600030B4002100F1240408E002F00705D208A3
:100F7000303542EA4372DB086554491C52EA0305E6
:100F8000F3D10468002310A2250707D5A40600D4D6
:100F900021B1C46901230DA2641EC46130BCFFF7F6
:100FA000A6BE10B5044621461068FFF76EFE024645
:100FB0002046BDE810400023D2E7D21D22F00701F1
:100FC000D1E90023CCE70000000000003000000061
:100FD000F0B40D460188090502D5214C7C4402E09D
:100FE0001F4C7C440E34002100F1240608E002F07E
:100FF0000F071209E75D42EA03721B097754491C87
:1010000052EA0307F3D102780023120704D5702DAA
:1010100006D009B1022311342246F0BCFFF767BEA7
:1010200001231034F8E770B504460D4621461068D8
:10103000FFF72BFE024629462046BDE870400023FC
:10104000C6E7D21D22F00703D3E90023C0E70368F7
:10105000126843F0200303600823C3610023B7E74D
:10106000B85700003A2800D2303820F02002412A38
:1010700001D3A2F13700884201D34FF0FF3070470F
:101080002DE9FF4F1C4691464FF0FF3581B00021FE
:101090008A468846D4E90167A16902986D1C884791
:1010A000216A834688470028F6D1BBF1FF3F0CD068
:1010B000002F26F4C0661ADD700615D5BBF12B0F84
:1010C0000AD0BBF12D0F0FD104E04FF0FF3005B077
:1010D000BDE8F08F46F48066A16902986D1C8847D0
:1010E0007F1E8346002F02DDBBF1300F03D0B9F124
:1010F000000F2AD025E0A1696D1C02987F1E46F4DE
:1011000000768847002F834605DDBBF1780F06D0B7
:10111000BBF1580F03D0B9F1000F10D011E0B9F1B5
:10112000000F02D0B9F1100F0BD1A1696D1C02980C
:101130007F1E26F4007688478346102000E00820B2
:1011400081464FEAE970009017E00A20F8E743462D
:10115000AAFB0928DDF800C07F1E03FB098046F4C6
:10116000007605F101050AFB0C0112EB0B0A02984F
:1011700041EBEB78A16988478346002F06DD49469D
:101180005846FFF76FFF5FEA000BE0D5E169029870
:101190008847B00502D46FF0010098E7F00718D136
:1011A000700610D55146700505D50023D1EB03011B
:1011B00063EB080200E042462068031D23600068DC
:1011C000C0E9001205E02068011D21600068C0E947
:1011D00000A828467BE700002DE9FF4F064689B0AE
:1011E0000878FF2806D0491C2D2805D000244FF090
:1011F000000908E000200CE00124F8E709EB89036E
:10120000491C00EB43090878FF28F7D114B1C9F154
:1012100000008146107800252C46AA4629462D2834
:1012200001D02B2804D1521C2D2813D00020824637
:101230008B461078FF280FD04FF0000C0A21521C6B
:10124000A5FB017804FB018105FB0C11C5194BEBD3
:101250000104EEE70120EAE7002108464FF0000014
:10126000BAF1000F02D000EB80004008C0F38158B3
:10127000B8F1010F01DD4FF0FF380C9809EB0007C2
:1012800055EA040009D04FF0020917F5FA7F0BDA8E
:101290004FEACA70C6E900B012E04FEACA70C6E968
:1012A00000B00DB0BDE8F08FB7F5FA7F0DDDF04866
:1012B0007844D0E90010C6E9001040EACA707060B6
:1012C000FFF74EFCC0F80090EBE7391E02DAC8F1D8
:1012D000000200E0424600DA794206A801F09AFCDA
:1012E00006AB93E8070003AB83E8070044F23E0037
:1012F0005BEA04010090584604D144F21E012C46DA
:101300005D460091210C0904014306D10099240493
:1013100044EA15442D041039009104F07F41014343
:1013200006D10099240244EA15642D02083900917F
:1013300004F07041014306D10099240144EA157478
:101340002D01091F009104F04041014306D100998D
:10135000A40044EA9574AD00891E009104F0004198
:10136000084304D100986D196441401E0090424624
:101370006846002FCDE9014503A902DD02F0BFFB5D
:1013800001E002F094FBBAF1000F04460D4601D0D3
:1013900084F0004440F2FF7724F00040284303D05B
:1013A000C4F30A50B84212D1FFF7DAFBC0F800903C
:1013B000C4F30A50B8420AD1AE487844D0E90010CC
:1013C000C6E9001004F000410843706069E7C6E90F
:1013D000005466E72DE9FF4F1F464FF0000A4FF01B
:1013E000FF38454691B0D7E90146CDF83CA000F062
:1013F000EFFDC0680168405C1090B96912986D1CDF
:101400008847396A814688470028F6D1B9F1FF3FFD
:101410000AD0002E24F4D06411DDB9F12B0F08D0CE
:10142000B9F12D0F0BD102E0404615B03AE744F474
:101430008064B96912986D1C8847761E81466005E4
:1014400004A901D52D2000E02B20002E01F1010B75
:101450000DF130088DF810003FDDB9F1690F08D0AB
:10146000B9F1490F05D0B9F16E0F02D0B9F14E0FA5
:101470001CD13B4601A8009580E85002DDE912121C
:101480006FF0020005F013F8C11CCED10EE0B9696F
:1014900012986D1C884781461398761E44F4007498
:1014A00005600F98401C002E0F9016DDB9F1300F2B
:1014B000EDD0B9F1780F02D0B9F1580F0DD10F98D6
:1014C00001280AD13B46CDE90054DDE91212001F84
:1014D000029604F0EAFFC11CA7D1109989453ED1BC
:1014E00044F0800406E01399681CAAF1010A44F450
:1014F00000740860B9696D1C1298761E8847302800
:101500008146F0D02BE01099894505D1200603D4FF
:10151000761E44F0800418E0484603F0FDF908B355
:10152000761E0DF123018B4544F4007408D2A9F115
:1015300030000BF8010B200607D5AAF1010003E0EB
:10154000200602D40AF101008246A00502D51399B3
:10155000681C0860B96912986D1C88478146002E86
:10156000D1DC53E0002E51DDB9F1650F02D0B9F1A5
:10157000450F4BD1A00549D5B9696D1C1298761E4F
:1015800024F440748847002E81460CDD2B2804D0BB
:10159000B9F12D0F07D144F48074B96912986D1C0C
:1015A0008847761E8146E00501D52D2100E02B21DC
:1015B00008F8011BCDF8008021E0761E0DF13901FD
:1015C000884544F400740CD2A9F1300010F0FF00FB
:1015D00088F8000002D10099884509D908F101086E
:1015E00006E0E00501D5244801E042F20F70824692
:1015F000B96912986D1C8847814613980560002EC2
:1016000004DD484603F088F90028D6D1F96912981C
:101610008847FF2053468BF8000088F80000002020
:101620000A900B9004AA0CA90AA8FFF7D5FDA00503
:1016300002D46FF00100F8E614F0240F0AD0E0079E
:1016400014D13868DDE90A12031D3B600068C0E967
:1016500000120BE00AA9684603F0B4F8E00705D1D0
:101660003868009A011D3960006802602846DCE68F
:101670000C59000002580000F1D8FFFF0268114425
:101680001378016018467047D1600549794451616B
:1016900004497944116200211161114601F0F0B84A
:1016A000EDFFFFFF690A0000426842B1016811F8CE
:1016B000013B23B1521EC0E90012184670470121B8
:1016C000C160881E704742685AB1C368016843B957
:1016D00083688B4205D0491E521CC0E900120020CD
:1016E00070474FF0FF3070472DE9FF4F4FF0000873
:1016F0009A461446C146464683B0D2E901B7CDF8B2
:101700000080CDF8048091690498884710990546B7
:101710005AEA010005D009E0A1690498761C8847BF
:101720000546216A284688470028F5D1681C03D061
:101730005FEACB7005D02AE04FF0FF3007B0BDE87C
:10174000F08F2068011D2160D0F800801FE002A802
:101750006A46E9B201F0F1FA411C07D0801C09D0B9
:101760004FF000095FEACB7007D00AE0E169049806
:1017700088473EE04FF0010904E0BDF8081028F862
:10178000021B7F1EA1690498761C88470546002F1E
:101790001ADD681C18D0BAF1000F0DD0E81705EB60
:1017A000D060421120F01F005AF822102A1A01209E
:1017B00090400142CBD107E010980028C7D12846BD
:1017C000216A88470028C2D0E16904988847B9F1A6
:1017D000000F0ED1109830B9002E04DD5FEACB70F7
:1017E00001D1A8F80000A068B84202DD109818B135
:1017F00017B16FF00100A1E730469FE72DE9FF4FD9
:101800004FF000089B461446454683B0D2E9019646
:10181000CDF80080CDF804809169DDF848A00498E7
:10182000884707465BEA0A0005D009E0A1690498E9
:101830006D1C88470746216A384688470028F5D13D
:10184000781C03D05FEAC97005D01BE04FF0FF3071
:1018500007B0BDE8F08F2068011D2160D0F800803E
:1018600010E05FEAC97007D16A464046B9B201F09C
:1018700082FA411C31D08044A1696D1C0498761E07
:1018800088470746002E14DD781C12D0BBF10000FB
:1018900007D03B46DDE9101201F0ACF90028E0D199
:1018A00007E0BAF1000FDCD13846216A88470028EA
:1018B000D7D0E16904988847BAF1000F06D1002D0E
:1018C00004DD5FEAC97001D188F80000A068B04269
:1018D00003DDBAF1000F03D016B16FF00100B7E7D6
:1018E0002846B5E72DE9FF5F9B46144600273D4695
:1018F0009169D2E90196DDF840A0019888478046B9
:101900005BEA0A0005D009E0A16901986D1C8847CF
:101910008046216A404688470028F5D1B8F1FF3F4C
:1019200003D05FEAC97005D014E04FF0FF3004B077
:10193000BDE8F09F2068011D216007680AE05FEAAA
:10194000C97001D127F8028BA1696D1C0198761E20
:1019500088478046002E15DDB8F1FF3F12D0BBF15D
:10196000000007D04346DDE90E1201F043F90028DC
:10197000E5D107E0BAF1000FE1D14046216A88477E
:101980000028DCD0E16901988847BAF1000F05D141
:10199000002D03DD5FEAC97000D13880A068B04235
:1019A00003DDBAF1000F03D016B16FF00100BEE7FE
:1019B0002846BCE72DE9F04705460C46C86820F4E8
:1019C000201040F48000C860800602D5084600F070
:1019D000D4F9E06841F282014FF0FF390140022959
:1019E00003D0204600F072F9B5E000F42041B1F5D3
:1019F000004F0FD1C00306D56168E06A884200D865
:101A00000846606006E02069E0626060606902F09C
:101A1000A1FFA061A0680022EEB200280DDAE16803
:101A20008B050AD4C043A06041F490302260E0608E
:101A30006068411C61600670A5E0E0689046226025
:101A400040F40050E060206968BB606902F096FFD6
:101A5000012704F12405A0B1A08910F4407F08D02B
:101A6000E069FFF781F8206118B1E06840F4006098
:101A700016E0E7612561E06820F4407040F4806082
:101A80000EE0E069FFF770F800282061F1D0E0680F
:101A900040F4006010F4407FE06002D140F48070B8
:101AA000E06020696060E06825696FF0010AC105A7
:101AB0001FD56168E06A884200D80846411B04D0FF
:101AC0002246284600F00CF9F0BBE068010203D57D
:101AD000E562C4E9015854E0691CE1626160E169B2
:101AE00040F48030491EC4E9021030462E70BDE833
:101AF000F087010202D500F480320AE06068411CE0
:101B000061600670E0680A2E40F48030E06006D024
:101B10000022E16A6068814203D90B4602E001229B
:101B2000F7E70346A7895B1B7F0503D4E7699F425C
:101B300000DDE2B1814200D80146E5620F1AC4E936
:101B40000158002B09DD00E005E022461946284631
:101B500000F0C6F808B14846C9E747B1A069E56298
:101B60006560C01BA061E06840F01000E060E068C4
:101B7000000208D56168A069E562491B08446560F8
:101B8000A0615046B3E73046B1E700002DE9F041CF
:101B9000044616460D464769007B80072ED038461E
:101BA00002F0ECFE50BB3EB3012E02D0022E25D136
:101BB00004E0204601F0A0F805441DE0384602F09C
:101BC000C9FEE168002841F01001E16005DA204615
:101BD00000F07CF80120BDE8F081C9030BD56268F4
:101BE000E16A914200D81146A26911442269891A1A
:101BF000814200DD08460544002D01DA0220EAE7B3
:101C0000E16A6068E268814206D29103E06203D52E
:101C100022F4003141F01002A6690027AE4213DC25
:101C2000E16A814201D90B4600E0034603EB060C52
:101C30002369ACEB030CAC4506DD814201D98C462F
:101C400000E084469C4505D1A760276042F0200053
:101C5000A5620DE0AD1BE669AE1B8142A66000D90E
:101C60000846C01A281A20605819606022F0200027
:101C700003490840E060002084F84870ABE70000AA
:101C8000BFCFD7FF70B5C468A50713D0650211D4C4
:101C9000B2F5807F09D0B2F5007F06D0B2F5806F33
:101CA00008D1012300F1240106E05D1E6FF07F469C
:101CB000B54201D3012070BD0161C361416024F4CC
:101CC00070611143C160002070BD0000C16821F443
:101CD000001141F08001C160002181600160704706
:101CE0002DE9F047814614460E464FF0FF38324842
:101CF000D5685769054209D03846A16902F014FF3A
:101D0000002811DB2C48C0430540E5602B463246D5
:101D10004946384602F01EFFA16920F00042B21A7F
:101D200011440028A16103D02046FFF7CFFF4046B1
:101D3000BDE8F08770B504460569C06A61688842ED
:101D400000D80846E16821F42011E160C90312D5EA
:101D5000A84208D02246411B2846FFF7C1FF10B118
:101D60004FF0FF3070BD0020E562C4E90150E0682B
:101D700020F48030E060002070BD10B50446C068DB
:101D800020F02000E060A16AA06988420DD02046C2
:101D9000FFF7D0FFE06820F4405040F01000E06012
:101DA000A06AA0612069E062606044F24001E068DE
:101DB0008843E06010BD00001000020010B54248EA
:101DC000542100F0CAF84148542100F0C6F84048B8
:101DD000542100F0C2F83F493B483C4A3F4B086061
:101DE0003D490A603A491960531C0365481C106557
:101DF000012008653B48344A39A17844FEF7BCFC11
:101E000020B9384878440A3800F0E1FF37482F4AB3
:101E100035A17844FEF7B0FC20B9344878440A383C
:101E200000F0D5FF32482A4A2FA17844FEF7A4FCDF
:101E300020B92F4878440A3800F0C9FF40232248CF
:101E4000DC0000212246FFF71DFF20B12548784421
:101E5000543800F0BCFF1D48224640230021FFF704
:101E600011FF20B121487844543800F0B0FF1848E1
:101E7000224610230021FFF705FF002806D01C484A
:101E80007844BDE81040563800F0A1BF10BD10489E
:101E900070B5006D20F001040B48FEF7EDFC0B4817
:101EA000FEF7EAFC0A48FEF7E7FC09E0206D20F0A7
:101EB00001052046FEF7E0FC2046FEF784FE2C4696
:101EC000002CF3D170BD000000020010540200107D
:101ED000A8020010E0000010E4000010E80000106C
:101EE000720000006A4900007700000059490000B4
:101EF0004949000010B5002000F062FFAFF30080F8
:101F0000BDE81040012000F059B82DE9F041064627
:101F1000FEF7F0F98046454613E016B1E068B0429E
:101F20000ED120682860D4E90101D8F800708847F4
:101F30002046FEF748FED8F80000B842EBD100E09A
:101F400025462C68002CE8D1BDE8F08110B500F0E2
:101F500045FFBDE8104000F02EBF4FF0000200B575
:101F6000134694469646203922BFA0E80C50A0E8BC
:101F70000C50B1F12001BFF4F7AF090728BFA0E86A
:101F80000C5048BF0CC05DF804EB890028BF40F836
:101F9000042B08BF704748BF20F8022B11F0804F78
:101FA00018BF00F8012B704700F03CFF08B56946E8
:101FB0008DF800000320ABBE08BD000001491820C9
:101FC000ABBEFEE726000200004870470403001085
:101FD000004870470803001070477047704770470B
:101FE00038B504460A460020694601F03AFA00284E
:101FF00008BF38BD02460099204600F04FFF01207F
:1020000038BD012001F01ABAF8B501F01FFA0546F3
:1020100000200C46102000BF0646A819A0420DD98A
:1020200032466946002001F01CFA070008BF01F0A3
:1020300005FA0098A04218BF0546C419FFF7C4FF6F
:1020400005600746F01D20F007004619284600F0FD
:102050000AF8B44208BFF8BDA21B31463868BDE893
:10206000F84000F01BBF00210160C0E9011070477B
:102070001020704730B5B0F10A024FEA900E71F1AE
:1020800000034EEA817EB0EB0E0061EB91014FEA56
:10209000101E4EEA017E10EB0E0041EB11114FEACB
:1020A000102E4EEA016E10EB0E0041EB11214FEAAB
:1020B000104E4EEA014E10EB0E0041EB114140185C
:1020C00041F100014FEAD00040EA41704FEAD101EE
:1020D00010EB80054FEA810444EA907444EB01045C
:1020E0006D1944EB0404521BA3414FF0000348BF99
:1020F0000A3200D530BD401C41F1000130BD10B5A1
:102100000446FEF725FD0068005D00F0010010BDEB
:1021100070472DE9FF4F0C461E464FF0FF378BB03E
:10212000D2E90001DDF860800A908A46C1F30A55C1
:1021300005B93D46002108464FF00000BAF1000FF6
:1021400000F4400005DA00EB80004FF4400101EAA2
:1021500050004FEA9059B9F1010F00DDB9460A98D5
:1021600050EA4A000ED044F61050A5F2FF35454320
:102170002F14B8F1000F1ED07542291E1EDDC9F1C3
:1021800000021CE0B8F1010F4FF0000001D0302137
:1021900003E0F24305E02154401CB042FBDB304633
:1021A0000022002121540B99C1F80880C1E90020C8
:1021B0000FB0BDE8F08FBD1B6D1CDEE74A4600DAAC
:1021C000694206A800F026FD06AB93E8070003ABC2
:1021D00083E8070050460A9901F0BAF98DE8070034
:1021E000A0F500501F3800900398002D09DD42F241
:1021F0001F014A46084403A90390684601F043FCC6
:1022000008E0A0F500504A461F3803A9039068462D
:1022100001F061FC8DE807000004000C03D04FF0D2
:10222000FF30410800E01046B8F1000F03D0002253
:10223000009215461EE0751E05D4FFF71BFF3032D5
:1022400062556D1EF9D5B3460122084302D0002223
:102250007F1C04E02078302801D100227F1E002A54
:10226000099786D01DE0112D07DAFFF703FF303202
:1022700062556D1C50EA0102F5D1084302D0009866
:10228000C8B10EE00021681E05E0235C625C635467
:102290002254401E491C8142F7DBAB46A81B401E5E
:1022A0000990002004F80B000B98099AC0F80880E8
:1022B000C0E9002B7CE711264FF0000859E72DE913
:1022C000F04F88460446D21D22F0070191B0D1E9B3
:1022D0000001CDE90A0102F0A9F902460B98C00FEE
:1022E00001D02D2007E02068810701D52B2002E0D6
:1022F000202101EAC000032A099001D0072A05DB4A
:1023000003464146204600F0E3FD0BE120788006BD
:1023100001D5E06900E00620B8F1650F814606D0DE
:10232000B8F1660F18D0B8F1670F70D131E0002016
:10233000B9F1110F009001DB112301E009F1010354
:102340000AAA01A90CA8FFF7E4FEDDE90C7000263B
:1023500009F10105834647E001204B4600904FF00C
:1023600000470AAA01A90CA8FFF7D3FEDDE90DB0CA
:102370000C995D46002610B909F101000D18B9EB62
:10238000050003D4C0F1FF3609F10105A5EB0900F2
:102390002BE0B9F1010F01DA4FF001090020B9F18A
:1023A000110F0090484601DD112300E003460AAA00
:1023B00001A90CA8FFF7ADFEDDE90C704D46002623
:1023C0008346207800070AD4AB4500DA5D4601A8B1
:1023D000012D04DD411911F8011C302907D04F45AA
:1023E00002DA17F1040F04DA012082460FE06D1EB5
:1023F000EEE7002F02DCED1B3E4403E0781CA84210
:1024000000DD7D1CB81B00F1010A4FF00047207869
:10241000000703D4AA4501DB4FF0FF3A0021B7F1D2
:10242000004F0DF143088DF8431024D002202B23D8
:10243000002F01DA7F422D230A21021EA0F10100A4
:1024400000DC5FB197FBF1FC97FBF1F201FB1C7C18
:1024500017460CF1300C08F801CDEEE7A8F10100A9
:1024600003702188090501D5452100E06521A0F10F
:10247000010800F8011C09980FA9A1EB0807FF1D2E
:1024800000B10120411901EBEA70A1693844081A32
:10249000401EA0612078C00602D42046FEF7C5FB8E
:1024A000099828B1D4E901219047206A401C206294
:1024B0002078C00622D52046FEF7B7FB1EE0002E8E
:1024C00004DBB34502DD01A8805D00E03020D4E9E3
:1024D00001219047206A401C2062761CAAF101006D
:1024E0005FEA000A0AD1FFF773FDC0680168405C2B
:1024F000D4E901219047206A401C2062281EA5F1E2
:102500000105DCDC07E0D4E9012118F8010B904754
:10251000206A401C2062381EA7F10107F3DC204628
:10252000FEF799FB032011B043E600002DE9F04FC0
:1025300004460D46D21D22F0070089B0D0E900976D
:102540004846394602F072F80246F80F01D02D23B2
:1025500007E02068810701D52B2302E0202101EA52
:10256000C0038DF820300BB1012000E00020032AC9
:10257000824601D0072A04DB2946204600F0A8FC49
:102580003FE12078800601D40D2500E0E569C7F31E
:102590000A560D2D49DA00214FEA175B08464FF025
:1025A0000000002F00F4400007DA00EB80004FF439
:1025B000400100EBD07001EA60008115012901DDC6
:1025C0004FF0FF3100224FEA850CBCF1180F06D303
:1025D0001346ACF118004FF08052C24003E04FF4B4
:1025E000801323FA0CF30CF10C0CBCF1200F04D374
:1025F000ACF1200C09FA0CF001E007FA0CF000290C
:102600004FF0004801DD18B90FE00ED140450CD362
:1026100019EB02095F4121B9404502D19F4329EAE4
:102620000209BBEB175F00D0761C2088000502D59D
:102630007B48784402E07A487844193808AA302365
:1026400002F80A30037C0AF10101002E0AF1020AA5
:1026500053546A4602DC4FF0300101E04FF0310183
:102660004FF001088DF8001002D0A6F2FF3603E00B
:1026700059EA470100D06B4E002D02DC2178090792
:1026800004D54FF002082E218DF80110C446002118
:102690000BE0C7F303433F01C35C491C6D1E02F806
:1026A0000830052908F1010801DA002DF1DC0021CC
:1026B0000CE000EB1973491C1B786D1E082902F809
:1026C00008304FEA091908F1010801DA002DF0DCA1
:1026D00021688B0602D516E0A8F10108E04505DD6A
:1026E00002EB080313F8013C302BF5D0B8F1000FD2
:1026F00009DD02EB080313F8013C2E2B03D1090777
:1027000001D4A8F10108002D05DD3E2102F80810D2
:102710006D1E08F10108407C002E02F8080008F147
:10272000010804DA2D20764202F8080002E02B208E
:1027300002F808000A214FF47A70864208F1010875
:102740000BDB96FBF0F3303302F8083096FBF0F326
:1027500008F1010800FB136601E0642E0CDB642025
:1027600096FBF0F3303302F8083096FBF0F308F1F3
:10277000010800FB136601E00A2E06DB96FBF1F070
:10278000303002F8080008F1010896FBF1F001FB77
:102790001060303002F80800A16908F1010808EB68
:1027A000050202EB0A00081AA0612078C00602D4D4
:1027B0002046FEF73AFA216A08AE01EB0A002062D1
:1027C00004E0D4E9012116F8010B9047BAF1010A9F
:1027D000F7D22078C00602D52046FEF726FA6E46CC
:1027E00009E016F8010B3E280FD0D4E901219047EB
:1027F000206A401C2062B8F10108F2D22046FEF7A0
:102800002AFA09B00320BDE8F08F206A284420622C
:1028100003E0D4E90121302090476D1EEBD3F8E7A7
:102820009D41000002FCFFFF10B5436913B1AFF3F7
:10283000008001E0FEF732FA012010BD127800F1AD
:1028400024010A7000224A700122EDE711684FF05E
:10285000FF32E9E710B5436913B1AFF3008001E03F
:10286000FEF7E2FA012010BD128800F124018284F3
:102870000022C2840122EDE711684FF0FF32E9E740
:102880002DE9F34F4FF0000A0C4656468DB001205B
:102890000C9001F10C000B9062690B98012190479C
:1028A000051E2DD0252D2CD0216A8847C0B1626924
:1028B0000B9801219047216A88470028F7D1626967
:1028C000411E0B98904700E0761CA1690D9888473F
:1028D000216A88470028F7D1E1690D988847DBE72E
:1028E000A1690D988847A842074601D1761CD3E715
:1028F000E1690D9888477F1C02D1BAF1000F6FD0B3
:102900006BE162690B9800273D46394690472A28BB
:1029100004D162690B98012190470125DFF8D0822C
:1029200062690B9801219047A0F130010A290AD26F
:102930004745E5DC07EB870100EB4107303FDFD47B
:1029400045F01005ECE7E90601D46FF000476C286C
:102950000AD04C2814D0682815D06A280DD07428C5
:102960001CD07A281AD01DE062690B98012190478B
:102970006C2802D045F0040514E045F002050DE096
:1029800045F020050AE062690B980121904768280C
:1029900002D045F0080505E045F4006562690B9832
:1029A00001219047C4E9015765283DD019DC58281A
:1029B0007AD00CDC452837D004DC252826D04128E5
:1029C0009ED131E046282FD0472899D12CE05B28B2
:1029D00077D0612828D063287CD0642823D15AE09E
:1029E000F6E06F2848D008DC66281DD067281BD089
:1029F000692821D06E2816D127E0702845D0732889
:102A000068D0752847D078280DD14DE0A1690D9880
:102A10008847252805463FF469AFE1690D98884746
:102A20006D1C3FF46AAFD8E00D9923466A466FF0FB
:102A3000010003F038FDC5E045F0400023464FF0AB
:102A400000026060A80736D43EE0E8077FF447AF95
:102A50002068011D21600068290501D506701BE76B
:102A6000290701D5068017E7A90703D5F117C0E9A3
:102A7000006111E706600FE745F0400023464FF084
:102A800008026060A80716D41EE040F60E0125EA91
:102A90000100606016E045F0400023464FF00A0256
:102AA0006060A80707D40FE045F040006060A80709
:102AB00008D5234610220D996FF00100FEF7E0FAC9
:102AC00080E007E0102223460D996FF00100FDF72A
:102AD000F9FC77E04FF0000963284F46C8464B46A3
:102AE000CB4602D05B2806D038E0E80601D40120AE
:102AF000A060012732E06269D4F80CB00B98012184
:102B000090475E2807D14FF0010949466269D4F821
:102B10000CB00B989047216939B900210A4603ABE4
:102B200043F82120491C0829FADBD8B3216949B3AD
:102B300008F1010862690B98012190475D28F4D1E2
:102B4000B9F1000F09D0002003A951F82020D24389
:102B500041F82020401C0828F7DB03AB206900283F
:102B600020794FEA40701ED05B462246CDF80080A7
:102B7000CDE901970D9900286FF0010020DAFEF7EA
:102B8000B1FE1FE0C11703AA00EBD1614B1121F088
:102B90001F0102EB8302411A13680120884003439E
:102BA0001360C7E719E00D99224600286FF0010075
:102BB000009702DAFEF798FD04E0FDF729FD01E039
:102BC000FEF71CFE00280ADA401C06D10C9820B142
:102BD0004FF0FF300FB0BDE8F08F5046FAE7E9073D
:102BE00001D10AF1010A064400200C9054E60000CD
:102BF000CCCCCC0C10B508E030F8024B9C4204D190
:102C00000AB1002010BD012010BD491EF4D21046AB
:102C100010BD00002DE9F047814616468AB03348C2
:102C200078440DC88DE80D0030487844801C03AC12
:102C30000DC884E80D0041F69B300844372190FB15
:102C4000F1F290FBF1F5A5F1800501FB12041B3CAC
:102C500002D56442012000E00020DFF890A0804609
:102C60000027FA44AAF1BE0A0DE0E00709D0324677
:102C7000684607EB47010AEB810100F02CFF8DE865
:102C8000070064107F1C002CEFD1184F7F44AC3F2D
:102C900018E0E80714D007EB04100DF1180A90E8CB
:102CA0000E008AE80E00C068F04201D19819089021
:102CB000324606A903A800F00EFF03AB83E8070025
:102CC0006D10641C002DE4D132466946B8F1000F46
:102CD00003A802D000F0D7FE01E000F0FCFEC9E935
:102CE0000001C9F808200AB0BDE8F087403C0000A8
:102CF000007B00F08000704710B50146C268900765
:102D000003D0900607D5886A0AE0FDF729FF012164
:102D10000160881E10BD8B69486818440B69C01A91
:102D200091F848301BB191F84910401A10BD1103B9
:102D3000FCD50028FADD401E10BD70B516460C46C5
:102D40000546FDF705FF036893F80101012804D04B
:102D5000185D68B101202C8070BDD3F803013246A4
:102D6000214603F2031303442846BDE87040184788
:102D70004FF0FF3070BD70B516460C460546FDF7A6
:102D8000E7FE036893F80101012806D0FF2C0FD855
:102D9000185D68B101202C7070BDD3F80701324670
:102DA000214603F2071303442846BDE87040184744
:102DB0004FF0FF3070BD002801D0FFF7FFB870471B
:102DC00010B500F009FBBDE81040FFF7F4BF10B5E7
:102DD00000F01AFBBDE81040FFF7EDBF10B5002171
:102DE00002A000F0DFFA012010BD00005349475057
:102DF00056464E3A20507572652076697274756138
:102E00006C20666E2063616C6C65640010B50449CB
:102E1000FDF7A0FCBDE810400148FDF784BC0000B0
:102E2000A802001010B500F00EF8016919B10022D7
:102E30000261884701E080688047FFF75BF8000087
:102E400010B5FFF757F870B500F024F80468054690
:102E5000A4B92020FDF788FE040011D00949002004
:102E60002C60C4E900010849A16020732061606101
:102E70000649A06109B100F011FBE061204670BD78
:102E8000FFF738F800000000412E000000000000AD
:102E900070470000004870471C030010034640685C
:102EA0008C46002818BF88423CBF03464068F8D3D0
:102EB00018681844884207D00CF1030020F007007E
:102EC000001D411A521A0146081D0A60FDF77BBE1B
:102ED0002DE9F0411F46044603260168072A01F444
:102EE000006004DB08B116A505E016A503E008B1F3
:102EF00015A500E015A521F010002060A069C01EF6
:102F0000A0610FB1401EA0612046FDF78EFE4FB1BB
:102F1000D4E9012138469047206A401C2062C01C39
:102F2000206206E0206AFAE7D4E9012115F8010BD6
:102F30009047761EF8D22046FDF78DFEBDE8F08161
:102F40004E414E006E616E00494E4600696E66004D
:102F50002DE9FF4F1F464FF03C0987B04FF000426C
:102F6000DDE9141001F10108DDF858A002EA405033
:102F70000390002005908346054604460490B969F5
:102F8000461E08988847AAF1010A0290BAF1000F7C
:102F90003BDD02982E2815D01021FEF763F800289B
:102FA0002EDB4FF0010B0599014317D0B9F1000F4B
:102FB0000BDB4A46C11700F08FFA05430C43A9F119
:102FC000040905E0012004900BE008B145F001057B
:102FD00001200590049820B9361D02E0049800B144
:102FE000361FB969089808F101088847BBF1000F3E
:102FF000AAF1010A0290C9D00999C1F80080C5E779
:103000000298702808D0502806D0F9690898884797
:10301000BBF1000F14D04FE0002002900120BBF163
:10302000000F049009D0B969089808F10108884791
:10303000AAF10109B9F1000F07DCF969089888477E
:103040006FF001000BB0BDE8F08F2B2804D02D28C5
:103050000CD14FF0FF300490B969089808F10108CD
:103060008847A9F10109B9F1000FE6DD411CE4D060
:103070000A21FDF7F7FF0028DFDB029908F10108BC
:1030800001EB810100EB41000290B9690898884783
:103090000A21FDF7E7FF099AA9F10109B9F1000F2B
:1030A000C2F8008001DD0028E7DAF969089888474E
:1030B0000499029800FB016655EA040004D004F06C
:1030C0004041090002D006E0039898E0A40044EAD9
:1030D0009574AD00B61E04F00041080002D16D19D0
:1030E0006441761E159810F0240F03D04FF00B09A1
:1030F0005C4803E04FF028096FF07D00824656459A
:1031000007DAAAEB06018944B9F1410F01DD4FF05E
:10311000410901200021A9F1010200F0DDF9024678
:1031200028400B462140084301D0012100E0002146
:10313000501E029143F1FF3128402140084301D045
:10314000012000E000200299834651EA0B014FD094
:10315000002108464FF00000039900F4400039B107
:1031600000EB80004FF4400100EBD07001EA6000FA
:103170008015012802DD4FF0FF3000E013D0401C25
:1031800036D0029860B3BBF1000F0CD14A46012043
:10319000002100F0A1F928402140084301D001207E
:1031A00000E00020E0B101204A46002100F094F93F
:1031B000034640190A4661412D1A8C4111D3B9F1D9
:1031C000400F09DD159810F0240F02D0AAF1340643
:1031D00003E0AAF1170600E0761C00254FF000443A
:1031E00006E05B1E42F1FF3220EA030521EA0204F9
:1031F000CAF10100B04206DA1B4903980843019066
:10320000002000900EE0039AC4F3D321E80A0A4399
:10321000164940EA44500A433146CDE90002684667
:1032200001F068FB159810F0240F0BD01598C0071B
:1032300015D13868DDE90012031D3B600068C0E964
:1032400000120CE002A8694601F0BCFA1598C0070C
:1032500005D13868029A011D396000680260404655
:10326000F0E6000002FCFFFF0000F07F0000F03FEE
:103270002DE9FF4F92461D4685B04FF00041DDE934
:10328000124BDDE914727F1E01EA4B50414940F0B8
:10329000FF4940EA0108002122F02000492804915A
:1032A00002D04E2828D04CE03BA0012607C88DE86C
:1032B0000700A9690698641C88477F1E014606D44A
:1032C0001DF8060018B121F0200181420BD0E969F8
:1032D00006988847032E34D0082E32D06FF00100B4
:1032E00009B0BDE8F08F761C032E01D0082EE0D186
:1032F000601CCAF80000DCE7A9690698641C8847CE
:103300007F1E2AD420F02000412826D1A9690698E2
:10331000641C88477F1E20D420F020004E281CD13A
:10332000A9690698641C88477F1E48F4002849F460
:103330008009CAF8004001D4282806D0E969069817
:1033400088475FEACB7012D022E0A9690698641C16
:1033500088477F1E01D4002803DAE9690698884768
:10336000BCE72928F1D1641CCAF80040E9E71BF04A
:10337000240F07D028680499031D2B600068C0E95A
:10338000001805E02868021D2A600068C0F8009057
:103390002046A5E70000F07F494E46494E49545962
:1033A0000000000070B505460C460A2000E06D1CC8
:1033B000FEF7FCFD35B128780028F8D102E0641C46
:1033C000FEF7F4FD14B120780028F8D1BDE8704074
:1033D0000A20FEF7EBBD000010B5002102A0FFF7A8
:1033E000E1FF012010BD0000534947414252543AC9
:1033F0002041626E6F726D616C207465726D696ED2
:103400006174696F6E00000010B5014602A0FFF7FD
:10341000C9FF012010BD0000534947525452454492
:103420003A2052656469726563743A2063616E275D
:1034300074206F70656E3A200000000010B500F037
:103440005FF8BDE81040FFF7B6BC0000124B6946BC
:1034500000F580528A421A6001D8114670471960FF
:10346000704730B50C4D6B46A3F580532C68224451
:103470009A420FD89B1A02F5805003EBD37302EBEC
:103480006303984200D91846C01D20F007020C6063
:10349000101B2A6030BD0000EC00001010B5882021
:1034A000FDF762FB002801D00021017010BD8029CA
:1034B00002D808B1017809B100207047012100F855
:1034C000081B704718B100F10802914201D000209A
:1034D0007047002101707047B2F120030AD5C2F194
:1034E000200301FA02F120FA03F300FA02F041EAA4
:1034F0000301704700FA03F14FF00000704700002D
:1035000010B5012805D0002103A0FFF74BFF0120D3
:1035100010BD09A1F8E7000053494752544D454DED
:103520003A204F7574206F662068656170206D6564
:103530006D6F7279000000003A2048656170206D5F
:10354000656D6F727920636F727275707465640057
:103550005FEA400C08BF91F0000F4FEA8C234FEA5E
:10356000C12243EA51514FEA1C5018BF00F5F04008
:103570004FEA300018BF41F000415FEA6C5C00F098
:103580002980BCF1FF3F08BF40F080407047130C1A
:1035900006BF12044FF0100C4FF0000C130E04BFC6
:1035A00012020CF1080C130F04BF12010CF1040CF1
:1035B000930F04BF92000CF1020CD30F04BF520012
:1035C0000CF1010C11464FF00002A0F11F00A0EB1E
:1035D0000C00704711F0004F08BF704731F00041F8
:1035E0003FF4D5AF0B0C06BF09044FF0100C4FF0A1
:1035F000000C0B0E04BF09020CF1080C0B0F04BFEA
:1036000009010CF1040C8B0F04BF89000CF1020CB2
:10361000CB0F04BF49000CF1010CCCF12003A0EB4F
:103620000C0022FA03F302FA0CF241EA030100F162
:103630000100704720F07F4C80EA030023F07F47B1
:10364000ACEB070303F57C5300F0004003F1FF03EC
:103650002DE980494FEA154B09B44FEA144325EA96
:103660000B4E24EA03480FF2042606EB1327490801
:103670003E785FEA320203FB0667C7F5000707FBE7
:1036800006F64FEA54374FEAD64606F1020607FB24
:10369000066CCCF1005C4FEA1C472CEA074C07FB98
:1036A00006F40CFB06F504EB15464FEA961634BFFC
:1036B00000204FF000404FEAD13706FB07FC4FEAED
:1036C0001C4C0CFB0BF7D21B03FB0CF761EB070147
:1036D0000CFB0EF7B0EB074072EB17420CFB08F740
:1036E00034BFA2EB0742B2EB074261EB17414FEA4E
:1036F0000C444FEA910706FB07FC4FEA1C4C0CFBFD
:103700000BF7B0EBC74072EB573203FB0CF734BF3B
:10371000A2EBC742B2EBC74261EB57310CFB0EF78D
:10372000B0EBC70072EB57720CFB08F734BFA2EB8B
:10373000C702B2EBC70261EB5771039F4FEA816189
:1037400041EA921104EBCC044FEAD1374FEA82628E
:1037500006FB07FC42EA90124FEA80604FEA1C4CDD
:103760000CFB0BF7D21B03FB0CF761EB07010CFB07
:103770000EF7B0EB074072EB17420CFB08F734BFB3
:10378000A2EB0742B2EB074261EB17414FEA8C55BF
:103790004FEA910704EB9C2406FB07FC4FEA1C4C04
:1037A0000CFB0BF7B0EBC74072EB573203FB0CF787
:1037B00034BFA2EBC742B2EBC74261EB57310CFBFF
:1037C0000EF7B0EBC70072EB57720CFB08F734BF73
:1037D000A2EBC702B2EBC70261EB577115EB4C25A8
:1037E0004FEA816141EA92114FEA82624FEAD13792
:1037F00042EA901206FB07FC44F100044FEA8060A5
:103800004FEA1C4C0CFB0BF7D21B03FB0CF761EBD4
:1038100007010CFB0EF7B0EB074072EB17420CFBF5
:1038200008F734BFA2EB0742B2EB074261EB174146
:1038300015EB1C154FEA813141EA92414FEA823281
:1038400042EA90424FEA80304FEA0C7644F100049D
:1038500048EA03434EEA0B484FF0000EB2EB080C67
:1038600071EB030724BF624639464EEB0E0E4FF054
:10387000000B0018524149414BEB0B0BB2EB080C0B
:1038800071EB03077BF1000B24BF624639464EEB18
:103890000E0E4FF0000B0018524149414BEB0B0B41
:1038A000B2EB080C71EB03077BF1000B24BF6246FF
:1038B00039464EEB0E0E51EA020718BF46F00106DC
:1038C00016EB0E7655F1000254F1000103D5BDE868
:1038D0008901BDE80088BDE88901BDE80048B61946
:1038E000524141EB0101A3F10103704780807F7ECB
:1038F0007D7C7B7A79787776767574737271717066
:103900006F6E6E6D6C6C6B6A6A6968686766666517
:103910006464636362616160605F5F5E5E5D5D5CA5
:103920005C5B5B5A5A595958585757565655555516
:103930005454535352525251515050504F4F4F4E76
:103940004E4D4D4D4C4C4C4B4B4B4A4A4A494949C4
:103950004848484747474746464645454544444406
:1039600044434343434242424241414146EA0646C0
:10397000A3F570534FEA164646EA42564FEAD22262
:1039800042EA415210B54FEAD121A3F1010300F000
:1039900017F820F0004000F1010C00F0004701EBA7
:1039A00000501146BCF5006F40EA070000D210BD80
:1039B00002484FF0000140EA070010BD0000F07F10
:1039C000002B26D4770021D01CB54FEA370703B46B
:1039D0004FF010004FF010014FF000000FBCBDE899
:1039E00010400BF1010BBBF1010F08BF5FEA170795
:1039F00022BF12F1010211F101014FF0004143F128
:103A0000000300F0004043EA00007047F9D3570874
:103A1000DAE746EA064613F1400F4FEA16461FDD85
:103A200013F1200FDFBF16430A46002120335B420B
:103A3000C8D0C3F1200746EA064602FA07F74FEA64
:103A4000164646EA0706C3F1200722FA03F201FAF6
:103A500007F721FA03F14FF0000342EA0702B1E74A
:103A600046EA020646EA06464FEA164646EA0106D6
:103A7000BCBF46EA0646360C4FF000034FF000028A
:103A80004FF000019EE72DE9C048934630B491E81D
:103A9000380007C831EA400C48BF34EA430C03D56C
:103AA000FFF7C8FDFFF78CFFF0BCBDE800882DE9EB
:103AB000C048934630B491E8380007C831EA400C5A
:103AC00048BF34EA430C03D5FFF7B4FDFFF74EFFC0
:103AD000F0BCBDE800882DE9C048934630B491E8B9
:103AE000380007C810F0804F08BF13F0804F03D193
:103AF00000F019F8FFF764FFF0BCBDE800882DE97D
:103B0000C048934630B491E8380007C810F0804FA1
:103B100008BF13F0804F03D100F005F8FFF726FF30
:103B2000F0BCBDE8008820F07F4780EA030023F066
:103B30007F4C07EB0C03A3F57C5300F00040A3F18E
:103B4000FE0392F0000F00F0B38095F0000F00F03C
:103B500077802DE901494FEA11404FEA144621EAE6
:103B6000004800FB06FC24EA064708FB06F607FBB4
:103B700008F800FB07F718EB06484CEB164C4FEA29
:103B8000124B18EB07484FEA15464CEB174022EA58
:103B90000B4E0BFB06FC25EA06470EFB06F607FB61
:103BA0000EFE0BFB07F71EEB064E4CEB164C4FF0D0
:103BB00000061EEB074E4CEB174B18EB0B0840F1C1
:103BC000000018EB0E0B58EB000840F100008F1AB4
:103BD0004FF000013CBFC943661B14BFB5EB040C9A
:103BE00000213CBFC943F61B4FEA17444EEA8E0E34
:103BF00027EA04454FEA1C4704FB07622CEA074CFE
:103C000005FB07F70CFB05F604FB0CFC16EB07465F
:103C100042EB174216EB0C4642EB1C421BEB06062E
:103C200058EB0202414146EA9E0601D5BDE80189F2
:103C3000B619524141EB0101A3F10103BDE801892D
:103C40004FEA14454FEA114724EA054621EA074C9A
:103C500005FB07F406FB07F70CFB06F105FB0CFC64
:103C600011EB074144EB17444FEA124711EB0C41AB
:103C700044EB1C4422EA074C05FB07F206FB07F75E
:103C80000CFB06F605FB0CFC16EB074642EB174255
:103C900016EB0C4642EB1C456A1854F1000148BF74
:103CA0007047B619524141EB0101A3F1010370477E
:103CB00095F0000F37D04FEA11424FEA144721EA3E
:103CC000024624EA074C02FB07F106FB07F70CFB50
:103CD00006F402FB0CFC14EB074441EB17414FEADE
:103CE000154714EB0C4441EB1C4125EA074C02FB41
:103CF00007F506FB07F70CFB06F602FB0CFC16EBC0
:103D0000074645EB174516EB0C4645EB1C421219CE
:103D100051F1000148BF7047B619524141EB010112
:103D2000A3F1010370474FEA14454FEA114724EA13
:103D3000054621EA074C05FB07F106FB07F70CFBDC
:103D400006F24FF0000605FB0CFC12EB074241EBBC
:103D5000174112EB0C4251EB1C4148BF70479218BF
:103D600041EB0101A3F101037047002100F05ABAB1
:103D70001B482021C0F8A011D0F8A01111F0400F6D
:103D8000FAD00221C0F804110121C0F80C110B2255
:103D9000C0F88420C0F88010AA22C0F88C205523D7
:103DA000C0F88C30D0F8881011F0806FFAD0032161
:103DB000C0F88010C0F88C20C0F88C300521C0F805
:103DC00008110021C0F8A811C0F8AC11054AC0F8CC
:103DD000C420C0F8C81143F23A01016070470000E6
:103DE00000C00F40DE8728042DE9F0410546144647
:103DF0000E46506900F0D4FB012718B1E760256238
:103E0000BDE8F081206A0028FAD0E069A842F7D125
:103E10003046A16900F0C4FB0028F1D0606A18B1F7
:103E2000002027616062EBE7206A6062E8E710B576
:103E30001446506900F0B4FB002802D00020206234
:103E4000E06010BD2DE9F0411468984616460D4615
:103E50000746A047284600F0D9FB214900F0A0FB07
:103E600030B1002332463846A968FFF7EBFF2AE05D
:103E7000284600F0CBFB1B4900F092FB18B305F17C
:103E800010041AE0F06810B12079800714D544B10D
:103E9000207910F0010F04D02146384600F084F854
:103EA00002E0606807EB2020234632462168FFF7D6
:103EB000C9FF3069002811D10834E96805EBC10059
:103EC0001030A042DED87468002C07D0434632463A
:103ED00029463846A446BDE8F0416047BDE8F08178
:103EE00088680000946800002DE9FF4D82B082468A
:103EF00014468B464FF0000810460E9D00F086FBDE
:103F0000274900F04DFB78B1DA4504D1A068059946
:103F100000F046FB40BB0095A26859465046059B01
:103F2000FFF7E2FF804636E0204600F06FFB1D49B8
:103F300000F036FB78B32646103426E06068C107EF
:103F400005D02146504600F02FF8074601E00AEB65
:103F500020275F450BD12068059900F021FB30B187
:103F60002079A046800716D50120286013E020792B
:103F7000800709D50095226859463846059BFFF70A
:103F8000B3FF8046286830B90834F06806EBC000FB
:103F90001030A042D2D806B04046BDE8F08D0000F7
:103FA00088680000946800000268496802EB2121DB
:103FB00009680844704700002DE9FF4D8CB0144695
:103FC000DDE91C688B4600271046199D00F01EFB9A
:103FD000704900F0E5FA98B3A0680F9900F0E0FA94
:103FE000C8B1DBF8000010B10C99884204D13078D8
:103FF000022801D0286828B1012028600020CBF8D1
:104000000000C3E0012030701A98C8F800000C9836
:10401000CBF8000012E0DDE91A1202A880E84601A0
:104020001898CDE90005A26859460F9B0C98FFF738
:10403000C3FF002803D02868002800D10127A5E08D
:10404000FFE7204600F0E2FA534900F0A9FA002801
:1040500069D018980B9440F34000089018981034D9
:1040600040F30000099089E0606800F001010A91C6
:104070000C9969B10A9969B121460C98FFF794FF30
:1040800082461A9850B12079800707D5012006E0B2
:104090000020F5E70C9901EB2020F1E700200090CB
:1040A00020680F9900F07CFA20B3DBF8000008B11B
:1040B000504507D16068C10702D03178012901D08D
:1040C000296829B1012028600020CBF8000029E0F0
:1040D000C00701D0022000E0012030700098C8F82D
:1040E0000000CBF800A03DE0089800E00998401CD3
:1040F0004CD142E0009900208DF81C0007AACDE9C0
:104100000428069006AB1898CDE90213CDE9000506
:104110002268594650460F9BFFF74EFF002828683B
:1041200002D020B1002731E00028FBD125E006981D
:1041300020B92079C00701D020680690307858B1A6
:104140009DF81C10022901D1022805D01B98006897
:1041500080B1069988420DD19DF81C0030701B98E3
:1041600006990160D8F80000012730B10A980028AC
:10417000BCD0B9E701202860D4E708340B98C168A7
:1041800000EBC1001030A0423FF66EAF10B03846D1
:10419000BDE8F08D886800009468000070B50D4699
:1041A000114600F0D3F80B4904460160681C04BFB7
:1041B000204670BD284625F01F012561616100F091
:1041C00057FE2069012100F01F0001FA00F0A061F4
:1041D000204670BD506A000010B500F0E3F8BDE85D
:1041E000104000F00FBA00F0DDB870B5044600686A
:1041F000012203690021204698470546401C04BF60
:104200004FF0FF3070BD2068022203690021204674
:1042100098470646206800220369294620469847A9
:10422000304670BD0160002141607047006900F0B8
:10423000A7BD006900F0D0BC70B50D461646002140
:1042400000F084F8074940F8141B0021FFF7EAFF4B
:10425000A0F114043146284600F02CFD20612046D0
:1042600070BD0000686A000010B506490446016090
:10427000006900F099FC204600F094F8BDE8104079
:1042800000F0C0B9686A000010B504460448206018
:10429000206900F089FC2046BDE8104000F082B89B
:1042A000686A000070B50A480468002C08BF70BD39
:1042B00025466468287B38B1A86800F09FF91DB1D5
:1042C0002868416828468847002CF1D170BD00005D
:1042D000C800001070B506460B480D46046884B14E
:1042E000A06858B12A463146FCF763FB30B9A06894
:1042F000FCF740FBA84204BF204670BD6468002C58
:10430000EED1002070BD0000C8000010002908BFD9
:10431000704770B50B480D460468002C08BF70BD8F
:104320002026207B50B108A12846A268FBF790FF09
:1043300005446068002818BF05F8016B6468002C0C
:10434000EFD170BDC800001025730000064A02605E
:10435000002202738160002904BF42607047034954
:104360000A68426008607047806A0000C800001058
:104370000A490160816879B1094A1168814204BF24
:104380004168116008D04A68824203D011465268E1
:104390008242FBD142684A6000F034B9806A000072
:1043A000C80000100B4901608168002908BF7047F0
:1043B000094A1168814202BF4168116070474A682A
:1043C000824203D0114652688242FBD142684A6061
:1043D00070470000806A0000C800001010B50C464D
:1043E000806901F07BF9204610BD000070B50D46D4
:1043F00088B01646194600F059F81E4901603C3154
:10440000016102231C221C491C3000F023F9A0F199
:104410001C043146284601F0EFF8A061002101A8F4
:10442000FFF700FF90E84F5004F11C0585E84F505E
:10443000002101A8FFF7F6FE90E84F501C3585E8F3
:104440004F50A069A0F18040B0F540400DD0B0F5CC
:10445000804F08BF012008D0B0F50C2F08BF022004
:1044600003D0B0F5102F01D103206065204608B0BD
:1044700070BD0000986A00006B3D000010B500F0B0
:1044800047F8BDE8104000F0BDB800F041B80FB4E7
:1044900070B5044606AD4069FCF745F92A466069E7
:1044A0000599FBF7CFFE70BC5DF814FB10B584B026
:1044B000FFF74CFF04460A4820603C30206122464A
:1044C00008A101A8FBF7C4FE07A101A8FCF7A3F906
:1044D00000216061FCF7C6F9204604B010BD000061
:1044E000F86A00003A257000772B000010B50749E4
:1044F00001603C31044601614069FCF7BDF920468A
:1045000000F034F8BDE8104000F07CB8F86A000014
:1045100010B50446054820603C3020616069FCF716
:10452000ABF92046BDE8104000F020B8F86A000062
:1045300010B50C4901601831016100210A4A00F1EF
:10454000100C0B4652F82140644508BF42F8213058
:10455000491C1029F6D3FFF725FFBDE8104000F0F5
:1045600051B80000586B0000C001001030B40A4977
:104570000160183101610021084A00F1100C0B465E
:1045800052F82140644508BF42F82130491C1029E7
:10459000F6D330BCFFF706BF586B0000C001001017
:1045A00070B50C46A04207D0406800BF05462046C3
:1045B000406800BF854201D1012070BD002070BD60
:1045C0000020704700207047002070472DE9F0411F
:1045D0008D180F46A0F110060C46A94209D030688C
:1045E00014F8011BC26A30469047401C18BFAC4209
:1045F000F5D1E01BBDE8F0810020704710B500F058
:1046000001F810BD10B5FCF7DEFA10BD10B530B1E1
:10461000006820B14038C46B2CB1204610BDFDF7B6
:10462000C3FC002010BDFDF7BFFCF6E7490050EACF
:10463000C12018BF04204A0D18BF40F0010040F20D
:10464000FF72B2EB515F08BF40F00200012808BFC3
:10465000052070472DE9F0411C4617460E008046A4
:1046600007D0054602E02846B0473D442046641E78
:10467000F9D24046BDE8F0810020FDF767BC00009C
:104680002DE9F04D00248AB00126CDE908649B464F
:1046900017468A46254600B10068CAF80050804691
:1046A0001046FFF7B3FF1149FFF77AFF08B1B8686A
:1046B00000E0032008A907AACDE904218DF81C50C9
:1046C00006AB069509A9CDE90263CDE900015B4679
:1046D0003A4651464046FFF76FFC10B1089800B1CA
:1046E00001240AB02046BDE8F08D00009468000067
:1046F0002DE9F0450E4601688BB0824651F8081C42
:10470000150001EB00040A9400684FF0000850F80F
:10471000047C18D0214800902148CDF80C80CDF8B9
:10472000108001900DF1140CCDF80880CDF8208098
:10473000CDF824808CE86004394600236A46204680
:10474000FFF780FB099C24BB01200290B7420BD0ED
:1047500002A8009033463A465146CDF808800A98A0
:10476000FFF7C2FB0298A0B129463846FFF718FFB1
:1047700008B10A9C0DE0CDF80C80CDF800802B46E6
:104780003A4603A90AA8CDF80480FFF779FF00B1E3
:10479000039C0BB02046BDE8F0850000E93D000019
:1047A0002F3E000040F2013200204FF0E04101F0C6
:1047B0004CBE0000024A0020110701F046BE000076
:1047C00001FDFFFF10B50446D1E9000100F002F839
:1047D000206010BDF8B504460D466A4600F01CFB8B
:1047E00000987E30009000281FDC002213462046EF
:1047F000294601F0B7F918D0002140F608004FF023
:10480000000006462046294601F00EF8044640F610
:10481000080006EA00014FF0000034F0004004BF39
:104820000220FCF7FCF92046F8BD0098FF280DDBBC
:104830000220FCF7F4F9002213462046294601F035
:104840001BFB8CBF04484FF0FF40F8BD20462946B3
:10485000BDE8F84000F0E8BF000080FF10B51B4A3B
:10486000511E1B48FFF7E8FC04461A4A1A49FCF798
:1048700029F8002215492D311848FFF78FFC04460E
:10488000144A1749FCF71EF8002210492F31154829
:10489000FFF784FC04460F4A1149FCF713F8002384
:1048A0000A4A921E511E1048FFF7A0FD0446094A0D
:1048B0000E49FCF707F80E480821017300218173A7
:1048C000417301604160816000BF10BD05C00920D7
:1048D000F0000010000000008942000020010010DC
:1048E000E74100003C010010580100108B4400001B
:1048F000B001001010B504460A46D4E90003194679
:1049000000F0DAFAC4E9000110BD0000014820F00F
:10491000070070472703001030380A2801D2012011
:1049200070470020704700000328BCBF002070477C
:104930000749002201EB800151F80C0C41F80C2CC6
:10494000002804BF4FF0FF307047016849680847EE
:10495000C00100100328BCBF00207047064901EBCE
:10496000800050F80C0C002804BF4FF0FF30704757
:104970000168896908470000C00100100328BCBF16
:1049800000207047064901EB800050F80C0C00280D
:1049900004BF4FF0FF3070470168C9680847000046
:1049A000C00100102DE9F8430F4605465449FCF7B5
:1049B0007DF8544E544CA6F1010888B93146404662
:1049C00000F01AFE012300220821204600F0CAFD53
:1049D0004FF41651204600F0E1FC0020BDE8F883BA
:1049E0004A492846FCF762F888B93146404600F04B
:1049F00003FE012300220821204600F0B3FD4FF4FE
:104A00001651204600F0CAFC0120BDE8F883404959
:104A10002846FCF74BF888B93146404600F0ECFDDB
:104A2000012300220821204600F09CFD4FF416517E
:104A3000204600F0B3FC0220BDE8F883DFF8D48004
:104A4000002458F8240018B1641C102CF9D34EE04F
:104A5000102C4CD228783A2809D16A462EA1284633
:104A6000FBF712FD0098002818BF103043E02F28F4
:104A70003DD1681C0546002115F8012B2F2A04D0D2
:104A8000002A18BF491CF7D10025FFF723FC002896
:104A90002DD017F0020F18BF022608D117F0040F0F
:104AA00018BF012603D117F0080618BF092617F012
:104AB0000C0F18BF46F4007617F0040F18BF46F429
:104AC00080664FF0FF333DB9144A1549FFF710FED9
:104AD000002818BF103009E0124A1149FFF708FEFC
:104AE00028B1016832460B692946984718B94FF03A
:104AF000FF30BDE8F88348F82400E01CBDE8F883E7
:104B00006867000003C0092000C000406F67000014
:104B100077670000C00100103A257000EC680000C3
:104B2000CC680000B468000010B503280EDB084A0A
:104B300002EB800050F80C0C28B1026813690022C7
:104B40009847401C02D14FF0FF3010BD002010BD2F
:104B5000C00100102DE9F0410E46154603280CDA7D
:104B60000024002D07D90E4F315D384600F0B6FD08
:104B7000641CAC42F8D328460FE00A4901EB8000E0
:104B800050F80C0C002804BF4FF0FF30BDE8F08156
:104B900001682A460B6831469847281ABDE8F0811B
:104BA00000C00040C0010010A0F180400949B0F5EC
:104BB000882004BFD1F8C40020F4005007D0B0F51D
:104BC000804F18BF7047D1F8C40020F48040C1F86E
:104BD000C400704700C00F4030B40023A0F18042F1
:104BE000DFF8C0C0B2F5882204BFDCF8A821C2F308
:104BF000816306D0B2F5804F04BFDCF8A821C2F370
:104C000001730122012B07D0022B08BF022203D01F
:104C1000032B0CBF06220422234B00251B685143A3
:104C2000B3FBF1FC2149A1FB0C21C1F30F120BE0F6
:104C3000511C8AB21621541CCB1C6343634519D006
:104C4000491E0029F8DCADB9B2EB9C0FF0D34FF050
:104C5000FF32002ADEBF002030BC70470368D0F866
:104C600000C04CF0010CC0F800C04261036030BCD1
:104C7000012070470E4B4FF4E00403EBC10CDCF84D
:104C800004C053F831104FF4702304EA0C5C03EABB
:104C900001414CEA010141F48041C2F309020A4397
:104CA000D7E7000000C00F40C4000010ABAAAAAABA
:104CB000B06600002DE9F0410F460646224900F09B
:104CC0009BFA04462149384600F096FA01462046F0
:104CD00000F074FA0446401C04D195221CA11FA0C8
:104CE000FBF708FEA4F1804022492546B0F5882054
:104CF00004BFD1F8C40040F4005006D0B0F5804F96
:104D000005D1D1F8C40040F48040C1F8C4000222AB
:104D10000D49304600F09CFA02220C49384600F05A
:104D200097FA2068206840F0010020600020A06011
:104D3000286111492046FFF74FFF10490220086003
:104D40002046BDE8F081000050660000806600004B
:104D500063616E5F6170692E6300000069642021E9
:104D60003D2028756E7369676E656420696E7429CD
:104D70004E43000000C00F40A086010000C0034069
:104D800000B50B46016885B011F0010F03D0016832
:104D900021F001020260816811F0010F02BF0020C2
:104DA00005B000BD016A0191416A0291816A0391D7
:104DB000C16A04910421416002981860019803A916
:104DC000C0F3034018730198C00F58730198C0F3E3
:104DD000807098730198C0F30342181DFBF734FEEE
:104DE000012005B000BD10B5044600F0D1FA002C3A
:104DF0001CBFBDE8104000F055B9FEE78A68002AE4
:104E000001DCFCF7D7BD521E8A604A68C0B2531C51
:104E10004B6010707047000010B5144600222260ED
:104E2000114A21F000439342A8BF10BD53EA00028B
:104E300008BF10BDB3F5801FA8BF226807DA36226D
:104E400001F003FB6FF0350221F000432260DFF830
:104E50001CC06FF31E510CEB23531A4441F0FF5159
:104E600041F00051226010BD0000F07F02FCFFFF06
:104E700070B50446401C08BF70BD24F01F0504F047
:104E80001F00012101FA00F60021204600F046F93A
:104E90000221204600F05EF928683043286070BD8A
:104EA00020F01F0200F01F00012303FA00F0002988
:104EB0000CBFD061906170472DE9F04106460C4669
:104EC00040F2FF75174635EA14502BD000221346E6
:104ED000304600F047FE25D03A463046214601F0E4
:104EE000B4FA06460C4635EA145010D00022134698
:104EF000304600F037FE15D10220FBF790FEFFF799
:104F000059FC0A46214662F31E01BDE8F0810220E9
:104F1000FBF785FEFFF746FC0A46214662F31E01B9
:104F2000BDE8F08130462146BDE8F0812DA1324830
:104F3000FFF7ADFA31493248FFF77BF951E03149CB
:104F40002F48FFF773F900284BD02E492C48FFF764
:104F50006DF9044622462CA12748FFF798FA294804
:104F600000682A4988423BD1264829A10268224884
:104F7000FFF78DFA23482DA102681F48FFF787FA33
:104F80002048027B30A11C48FFF781FA1D480279B6
:104F900035A11948FFF77BFA1A48027939A116485A
:104FA000FFF775FA3E4800BF024652695269034650
:104FB0009B691A400AB1012200E0002200BF0AB931
:104FC000012200E0002211460A461AB1D0E9055339
:104FD000AB6102E0D0E90553EB6100BF00BF00BF49
:104FE00000BFACE772756E6E696E672070726F6796
:104FF00072616D0A000000005801001020A1070036
:10500000F0000010B001001025640A0048F0FF0C09
:105010004D65737361676520726563656976656464
:105020002049443A2025640A000000004D6573734E
:105030006167652072656365697665642049443AF5
:105040002025780A000000004D65737361676520B4
:105050007265636569766564206C656E6774683A2D
:105060002025780A000000004D6573736167652094
:10507000726563656976656420646174613A2025B0
:10508000640A00004D65737361676520726563652E
:105090006976656420646174613A2025780A0000AD
:1050A0003C0100102DE9F0411B4C2046FFF7E0FECB
:1050B000A51C2846FFF7DCFEE61C3046FFF7D8FEAD
:1050C000671D3846FFF7D4FE01212046FFF7E8FEB2
:1050D00000212846FFF7E4FE00213046FFF7E0FEFE
:1050E00001213846FFF7DCFE962000F063FB00212B
:1050F0002046FFF7D5FE01212846FFF7D1FE01210A
:105100003046FFF7CDFE00213846FFF7C9FE962056
:1051100000F050FBD8E7000032C00920421C08BF55
:105120007047A0F10050A0F51C2003090007C20E33
:10513000074800EB830003684FF0030C0CFA02FCF5
:1051400023EA0C0303600368914019430160704730
:1051500000C00240421C08BF704730B4A0F10050AC
:10516000A0F51C20144C420904EB8202956E00F05D
:105170001F0CC1F3800303FA0CFC25EA0C059566AD
:10518000956E45EA0C0CC2F868C0002B1CBF30BC01
:10519000704703090007C20E04EB8300036C4FF055
:1051A000030C0CFA02FC23EA0C030364036C914029
:1051B0001943016430BC704700C00240884208BFF8
:1051C0007047421C04BF08467047491C08BF70471F
:1051D00003A108480068FBF72BF80120FFF703FE46
:1051E00070696E6D6170206D69732D6D6174636897
:1051F00000000000E8000010421C04BF4FF0FF3028
:1052000070470A68521C08D00A68824204BF486886
:10521000704751F80C2F521CF6D10C4803A10068BE
:10522000FBF706F80120FFF7DEFD000070696E6DE8
:105230006170206E6F7420666F756E6420666F7289
:10524000207065726970686572616C00E80000101A
:10525000F0B4431C04BFF0BC70470B685B1C47D024
:105260000B68834240D1A0F10053A3F51C23451CD9
:1052700018098C681907C90E214F4FF0030C0CFA5E
:1052800001FC07EB8000002D09D0056825EA0C051C
:105290000560056804FA01F445EA0404046004BFEB
:1052A000F0BC70474FEA531503F01F0607EB850368
:1052B0009F6EC2F3800404FA06F527EA05069E668F
:1052C0009E6E46EA05059D66002C1CBFF0BC70472B
:1052D000036C23EA0C030364036C02FA01F143EA52
:1052E00001010164F0BC704751F80C3F5B1CB7D161
:1052F000094804A10068FAF79BFF0120FFF773FD3E
:1053000000C00240636F756C64206E6F742070691A
:105310006E6F757400000000E80000102DE9F04188
:1053200006460C4640F2FF75174635EA14502BD05E
:1053300000221346304600F015FC25D03A46304690
:10534000214601F082F806460C4635EA145010D08A
:1053500000221346304600F005FC15D10220FBF771
:105360005EFCFFF727FA0A46214662F31E01BDE8FC
:10537000F0810220FBF753FCFFF714FA0A4621469E
:1053800062F31E01BDE8F08130462146BDE8F081A0
:1053900084B069461820ABBE04B070472DE9F34FC6
:1053A00089B008460999674BA1F18042B2F54042A5
:1053B00015D0B2F5804F1DD0B2F50C2F40D0B2F50C
:1053C000102F48D1D3F8AC1121F44021C3F8AC110F
:1053D000D3F8AC1141F48021C3F8AC1116E0D3F836
:1053E000A81121F0C001C3F8A811D3F8A81141F009
:1053F000400109E0D3F8A81121F44071C3F8A811C5
:10540000D3F8A81141F48071C3F8A8114E490201E4
:1054100009680291B1FBF2F302FB13114FF0000A8D
:105420004FF0010B1FFA83F8D14600296ED000F02F
:10543000B5FE08904FEA5807CDF8008001905FE074
:10544000D3F8AC1121F44031C3F8AC11D3F8AC114E
:1054500041F48031C0E773223CA140A0FBF74AFA37
:1054600001240125012C45D9384600F0B7FB042260
:10547000FFF754FF07900691029800F0A7FE00F096
:1054800031FD05900491204600F0A0FE03902846CF
:1054900000F09CFE039900F0BFFD4FF07E5100F03C
:1054A0004DFD00F01FFD069B079A00F0E7FB02464A
:1054B0000B460499059800F0FDF900F0B5F9014696
:1054C000089800F017FF089900F0A6FD20F00046AC
:1054D0003046019900F08EFE08D22148B846AA460F
:1054E000A34601968642B8BF4FF00109681CC5B2B9
:1054F000A542CCD3601CC4B20F2CB2D9781C87B2A1
:105500000098874298BFB9F1000FA9D00998007B95
:1055100040F080010998017309994FEA1820087139
:10552000099880F8008009994AEA0B1081F8280050
:105530000998007B20F08001099801730BB0BDE849
:10554000F08F000000C00F40C40000107365726946
:10555000616C5F6170692E63000000003000000024
:105560006F12833A30B4DFF880C04D1FDCF8004082
:10557000042D07D30A461D492046FAF759FE01209B
:10558000FFF731FCA1F1050C052A1CD2DFE802F07F
:105590000305080B0E00002100E00121002207E0B6
:1055A00001210A4604E00121022201E00121032237
:1055B000012B18BF022B0DD00D492046FAF738FEFB
:1055C0000120FFF710FC0B492046FAF731FE0120BD
:1055D000FFF709FC5B1E4CEA830343EAC10141EA81
:1055E0000211017330BC7047E8000010D465000060
:1055F000346600001466000070B50E4605462B495F
:10560000FFF7FAFD04462A493046FFF7F5FD01464B
:105610002046FFF7D3FD0446401C07D12D4825A1A5
:105620000068FAF705FE0120FFF7DDFBA4F18040DA
:105630002949B0F5404004BFD1F8C40040F008004B
:1056400016D0B0F5804F04BFD1F8C40040F0100070
:105650000ED0B0F50C2F04BFD1F8C40040F080701C
:1056600006D0B0F5102F05D1D1F8C40040F000707D
:10567000C1F8C40001202072002060604FF4165170
:105680002046FFF78BFE0123002208212046FFF76A
:1056900069FF022205492846FFF7DAFD0222044984
:1056A0003046FFF7D5FD204670BD0000FC640000C9
:1056B0006865000053657269616C2070696E6F7572
:1056C00074206D617070696E67206661696C6564D5
:1056D00000000000E800001000C00F40027D12F042
:1056E000200FFBD001707047034A12689208B2FB8A
:1056F000F1F1491EC1607047C4000010184AB0F1B2
:10570000402F04BFD2F8C41041F0020118D0A0F11C
:105710008041B1F5004104BFD2F8C41041F004014A
:105720000ED0B1F5082F04BFD2F8C41041F48001A7
:1057300006D0B1F50C2F05D1D2F8C41041F4000108
:10574000C2F8C41002214160002101670549064AE0
:1057500009688908B1FBF2F1491EC1607047000079
:1057600000C00F40C400001040420F008068704726
:1057700081680029FCD101214160704770B50A4C55
:105780000A4D206858B92846FFF7B8FF084928464F
:10579000FFF7AAFF2846FFF7EBFF0120206028460D
:1057A000BDE87040FFF7E2BFDC0000100040094098
:1057B00040420F0070B54FF47A7100FB01F5FFF71E
:1057C000DDFF0446FFF7DAFF001BA842FAD370BDE5
:1057D00010B500290AD00878002807D00548784479
:1057E000FBF764F9002801D0002010BD024878447E
:1057F00010BD0000EA130000E213000010B50029FC
:105800000AD00878002807D005487844FBF74EF9FD
:10581000002801D0002010BD0248784410BD0000CF
:10582000CE140000C614000021F00042A2F1605224
:10583000B2F5801F01F0004328BFD2F17F6C0BD975
:105840005FEA001C43EAC20242EB507018BF704787
:1058500028BF20F001007047B2F5801FBCBF18467A
:1058600070474FEA410C1CF5001F02D2084600F0B9
:105870003BBD70B500F0ACFA00000089FFF7F6BF41
:105880004FF00040A0F580007047000002494FF043
:10589000000000F0A8BD00BF0000F87F491058BF0D
:1058A000C1F140415B1058BFC3F140438B42EFF35D
:1058B000008070472DE9C04130B4DFF8A0C23CEA57
:1058C000111418BF3CEA131400F0EC8081EA0305C0
:1058D0001CEA111444EAD57418BF1CEA131500F031
:1058E000C780A4EB05044FF0004545EAC12145EA15
:1058F000C32341EA505143EA525304F17F74994261
:1059000004F500344FEAC0204FEAC22208BF90429B
:1059100000F09C804FEA13650FF24016765D4FEA67
:10592000134506FB05F7C7F1807706FB07F74FEA3B
:10593000D737A7FB03687642C8F58038A7FB06CEA9
:1059400038BFA8F1010807FB08E64FF0000EA6FBE0
:10595000028CE6FB03CEDCF1000CCEF1004E38BF2A
:10596000AEF1010EA6FB0C584FF000074FF00005FA
:10597000E6FB0E87A1FB08C6A0FB07CE16EB0E06C2
:1059800045F10005E1FB076515F1E04E7EBFA4F58A
:1059900080345FEA46066D4116F1800745F1000547
:1059A0004FEA17274FEA066647EA0567A6F1DE4683
:1059B000B6F1805F4FEA15251FD9384624F0010C57
:1059C00005EBC471BCF1FE6F01EB0C1102D8F0BC09
:1059D000BDE8008124425CBF01F5801E9EEAC47FC1
:1059E00002D4F0BCBDE80081244238D4F0BCA1F15F
:1059F000C041BDE8004100F039BA4FEAD22242EA84
:105A000043524FEAD323A7FB02864FEAD02040EA55
:105A1000415007FB03661EEA0E0F4FEAD12105FB3A
:105A2000026658BFA6EB0056B6EB00564FEA520E80
:105A30004EEAC37E18EB0E0E56EB530EBDD518EB97
:105A400002085E417F1C55F10005B6E74FF4801552
:105A50004FF000074FF000064FF00008ADE7F0BC34
:105A60004FF0000001F1C04101F00041BDE80081AC
:105A700011EA0C1F0CEA131500D00CE013EA0C1FFE
:105A800000F025804FF00000F0BC81EA030101F036
:105A90000041BDE80081F0BCBDE8004181EA03019E
:105AA00000F0E4B9F0BCBDE8004170B500F090F939
:105AB000097EFC3E00F007B881EA03014FF00000C8
:105AC00001F00041704781EA030100F0CFB9F0BC5A
:105AD000BDE800414FF0000021497047FFFDFBF990
